{
  "address": "0x7B3A70D10B6567ccd970a5871efa8d6edFc82443",
  "abi": [
    {
      "inputs": [
        {
          "internalType": "string",
          "name": "_name",
          "type": "string"
        },
        {
          "internalType": "string",
          "name": "_symbol",
          "type": "string"
        }
      ],
      "stateMutability": "nonpayable",
      "type": "constructor"
    },
    {
      "inputs": [],
      "name": "IsZeroAddress",
      "type": "error"
    },
    {
      "anonymous": false,
      "inputs": [
        {
          "indexed": true,
          "internalType": "address",
          "name": "account",
          "type": "address"
        },
        {
          "indexed": true,
          "internalType": "address",
          "name": "operator",
          "type": "address"
        },
        {
          "indexed": false,
          "internalType": "bool",
          "name": "approved",
          "type": "bool"
        }
      ],
      "name": "ApprovalForAll",
      "type": "event"
    },
    {
      "anonymous": false,
      "inputs": [
        {
          "indexed": true,
          "internalType": "address",
          "name": "employer",
          "type": "address"
        },
        {
          "indexed": true,
          "internalType": "address",
          "name": "employee",
          "type": "address"
        },
        {
          "indexed": false,
          "internalType": "uint256",
          "name": "tokenId",
          "type": "uint256"
        }
      ],
      "name": "MintPair",
      "type": "event"
    },
    {
      "anonymous": false,
      "inputs": [
        {
          "indexed": true,
          "internalType": "bytes32",
          "name": "role",
          "type": "bytes32"
        },
        {
          "indexed": true,
          "internalType": "bytes32",
          "name": "previousAdminRole",
          "type": "bytes32"
        },
        {
          "indexed": true,
          "internalType": "bytes32",
          "name": "newAdminRole",
          "type": "bytes32"
        }
      ],
      "name": "RoleAdminChanged",
      "type": "event"
    },
    {
      "anonymous": false,
      "inputs": [
        {
          "indexed": true,
          "internalType": "bytes32",
          "name": "role",
          "type": "bytes32"
        },
        {
          "indexed": true,
          "internalType": "address",
          "name": "account",
          "type": "address"
        },
        {
          "indexed": true,
          "internalType": "address",
          "name": "sender",
          "type": "address"
        }
      ],
      "name": "RoleGranted",
      "type": "event"
    },
    {
      "anonymous": false,
      "inputs": [
        {
          "indexed": true,
          "internalType": "bytes32",
          "name": "role",
          "type": "bytes32"
        },
        {
          "indexed": true,
          "internalType": "address",
          "name": "account",
          "type": "address"
        },
        {
          "indexed": true,
          "internalType": "address",
          "name": "sender",
          "type": "address"
        }
      ],
      "name": "RoleRevoked",
      "type": "event"
    },
    {
      "anonymous": false,
      "inputs": [
        {
          "indexed": true,
          "internalType": "address",
          "name": "operator",
          "type": "address"
        },
        {
          "indexed": true,
          "internalType": "address",
          "name": "from",
          "type": "address"
        },
        {
          "indexed": true,
          "internalType": "address",
          "name": "to",
          "type": "address"
        },
        {
          "indexed": false,
          "internalType": "uint256[]",
          "name": "ids",
          "type": "uint256[]"
        },
        {
          "indexed": false,
          "internalType": "uint256[]",
          "name": "values",
          "type": "uint256[]"
        }
      ],
      "name": "TransferBatch",
      "type": "event"
    },
    {
      "anonymous": false,
      "inputs": [
        {
          "indexed": true,
          "internalType": "address",
          "name": "operator",
          "type": "address"
        },
        {
          "indexed": true,
          "internalType": "address",
          "name": "from",
          "type": "address"
        },
        {
          "indexed": true,
          "internalType": "address",
          "name": "to",
          "type": "address"
        },
        {
          "indexed": false,
          "internalType": "uint256",
          "name": "id",
          "type": "uint256"
        },
        {
          "indexed": false,
          "internalType": "uint256",
          "name": "value",
          "type": "uint256"
        }
      ],
      "name": "TransferSingle",
      "type": "event"
    },
    {
      "anonymous": false,
      "inputs": [
        {
          "indexed": false,
          "internalType": "string",
          "name": "value",
          "type": "string"
        },
        {
          "indexed": true,
          "internalType": "uint256",
          "name": "id",
          "type": "uint256"
        }
      ],
      "name": "URI",
      "type": "event"
    },
    {
      "inputs": [],
      "name": "DEFAULT_ADMIN_ROLE",
      "outputs": [
        {
          "internalType": "bytes32",
          "name": "",
          "type": "bytes32"
        }
      ],
      "stateMutability": "view",
      "type": "function"
    },
    {
      "inputs": [
        {
          "internalType": "address",
          "name": "account",
          "type": "address"
        },
        {
          "internalType": "uint256",
          "name": "id",
          "type": "uint256"
        }
      ],
      "name": "balanceOf",
      "outputs": [
        {
          "internalType": "uint256",
          "name": "",
          "type": "uint256"
        }
      ],
      "stateMutability": "view",
      "type": "function"
    },
    {
      "inputs": [
        {
          "internalType": "address[]",
          "name": "accounts",
          "type": "address[]"
        },
        {
          "internalType": "uint256[]",
          "name": "ids",
          "type": "uint256[]"
        }
      ],
      "name": "balanceOfBatch",
      "outputs": [
        {
          "internalType": "uint256[]",
          "name": "",
          "type": "uint256[]"
        }
      ],
      "stateMutability": "view",
      "type": "function"
    },
    {
      "inputs": [
        {
          "internalType": "bytes32",
          "name": "role",
          "type": "bytes32"
        }
      ],
      "name": "getRoleAdmin",
      "outputs": [
        {
          "internalType": "bytes32",
          "name": "",
          "type": "bytes32"
        }
      ],
      "stateMutability": "view",
      "type": "function"
    },
    {
      "inputs": [
        {
          "internalType": "bytes32",
          "name": "role",
          "type": "bytes32"
        },
        {
          "internalType": "address",
          "name": "account",
          "type": "address"
        }
      ],
      "name": "grantRole",
      "outputs": [],
      "stateMutability": "nonpayable",
      "type": "function"
    },
    {
      "inputs": [
        {
          "internalType": "bytes32",
          "name": "role",
          "type": "bytes32"
        },
        {
          "internalType": "address",
          "name": "account",
          "type": "address"
        }
      ],
      "name": "hasRole",
      "outputs": [
        {
          "internalType": "bool",
          "name": "",
          "type": "bool"
        }
      ],
      "stateMutability": "view",
      "type": "function"
    },
    {
      "inputs": [
        {
          "internalType": "address",
          "name": "account",
          "type": "address"
        },
        {
          "internalType": "address",
          "name": "operator",
          "type": "address"
        }
      ],
      "name": "isApprovedForAll",
      "outputs": [
        {
          "internalType": "bool",
          "name": "",
          "type": "bool"
        }
      ],
      "stateMutability": "view",
      "type": "function"
    },
    {
      "inputs": [
        {
          "internalType": "address",
          "name": "_employer",
          "type": "address"
        },
        {
          "internalType": "address",
          "name": "_employee",
          "type": "address"
        },
        {
          "internalType": "string",
          "name": "contractName",
          "type": "string"
        }
      ],
      "name": "mintPair",
      "outputs": [],
      "stateMutability": "nonpayable",
      "type": "function"
    },
    {
      "inputs": [],
      "name": "name",
      "outputs": [
        {
          "internalType": "string",
          "name": "",
          "type": "string"
        }
      ],
      "stateMutability": "view",
      "type": "function"
    },
    {
      "inputs": [
        {
          "internalType": "bytes32",
          "name": "role",
          "type": "bytes32"
        },
        {
          "internalType": "address",
          "name": "account",
          "type": "address"
        }
      ],
      "name": "renounceRole",
      "outputs": [],
      "stateMutability": "nonpayable",
      "type": "function"
    },
    {
      "inputs": [
        {
          "internalType": "bytes32",
          "name": "role",
          "type": "bytes32"
        },
        {
          "internalType": "address",
          "name": "account",
          "type": "address"
        }
      ],
      "name": "revokeRole",
      "outputs": [],
      "stateMutability": "nonpayable",
      "type": "function"
    },
    {
      "inputs": [
        {
          "internalType": "address",
          "name": "from",
          "type": "address"
        },
        {
          "internalType": "address",
          "name": "to",
          "type": "address"
        },
        {
          "internalType": "uint256[]",
          "name": "ids",
          "type": "uint256[]"
        },
        {
          "internalType": "uint256[]",
          "name": "amounts",
          "type": "uint256[]"
        },
        {
          "internalType": "bytes",
          "name": "data",
          "type": "bytes"
        }
      ],
      "name": "safeBatchTransferFrom",
      "outputs": [],
      "stateMutability": "nonpayable",
      "type": "function"
    },
    {
      "inputs": [
        {
          "internalType": "address",
          "name": "from",
          "type": "address"
        },
        {
          "internalType": "address",
          "name": "to",
          "type": "address"
        },
        {
          "internalType": "uint256",
          "name": "id",
          "type": "uint256"
        },
        {
          "internalType": "uint256",
          "name": "amount",
          "type": "uint256"
        },
        {
          "internalType": "bytes",
          "name": "data",
          "type": "bytes"
        }
      ],
      "name": "safeTransferFrom",
      "outputs": [],
      "stateMutability": "nonpayable",
      "type": "function"
    },
    {
      "inputs": [
        {
          "internalType": "address",
          "name": "operator",
          "type": "address"
        },
        {
          "internalType": "bool",
          "name": "approved",
          "type": "bool"
        }
      ],
      "name": "setApprovalForAll",
      "outputs": [],
      "stateMutability": "nonpayable",
      "type": "function"
    },
    {
      "inputs": [
        {
          "internalType": "bytes4",
          "name": "interfaceId",
          "type": "bytes4"
        }
      ],
      "name": "supportsInterface",
      "outputs": [
        {
          "internalType": "bool",
          "name": "",
          "type": "bool"
        }
      ],
      "stateMutability": "view",
      "type": "function"
    },
    {
      "inputs": [],
      "name": "symbol",
      "outputs": [
        {
          "internalType": "string",
          "name": "",
          "type": "string"
        }
      ],
      "stateMutability": "view",
      "type": "function"
    },
    {
      "inputs": [
        {
          "internalType": "uint256",
          "name": "tokenId",
          "type": "uint256"
        }
      ],
      "name": "uri",
      "outputs": [
        {
          "internalType": "string",
          "name": "",
          "type": "string"
        }
      ],
      "stateMutability": "view",
      "type": "function"
    }
  ],
  "transactionHash": "0xcfc4433a1bcd786b66e152c9e40f8ed055f2cfaed5ea9a035ea5ba1d65fe34ec",
  "args": [
    "Contract Soul Bound Token",
    "CBT"
  ],
  "numDeployments": 1,
  "solcInputHash": "889ba4613672f7f4ef0e51309505e870",
  "bytecode": "0x60a0604052600060809081526003906200001a908262000148565b5060016006553480156200002d57600080fd5b5060405162002efe38038062002efe8339810160408190526200005091620002c3565b6040805160208101909152600081526200006a8162000091565b50600762000079838262000148565b50600862000088828262000148565b5050506200032d565b60026200009f828262000148565b5050565b634e487b7160e01b600052604160045260246000fd5b600181811c90821680620000ce57607f821691505b602082108103620000ef57634e487b7160e01b600052602260045260246000fd5b50919050565b601f8211156200014357600081815260208120601f850160051c810160208610156200011e5750805b601f850160051c820191505b818110156200013f578281556001016200012a565b5050505b505050565b81516001600160401b03811115620001645762000164620000a3565b6200017c81620001758454620000b9565b84620000f5565b602080601f831160018114620001b457600084156200019b5750858301515b600019600386901b1c1916600185901b1785556200013f565b600085815260208120601f198616915b82811015620001e557888601518255948401946001909101908401620001c4565b5085821015620002045787850151600019600388901b60f8161c191681555b5050505050600190811b01905550565b600082601f8301126200022657600080fd5b81516001600160401b0380821115620002435762000243620000a3565b604051601f8301601f19908116603f011681019082821181831017156200026e576200026e620000a3565b816040528381526020925086838588010111156200028b57600080fd5b600091505b83821015620002af578582018301518183018401529082019062000290565b600093810190920192909252949350505050565b60008060408385031215620002d757600080fd5b82516001600160401b0380821115620002ef57600080fd5b620002fd8683870162000214565b935060208501519150808211156200031457600080fd5b50620003238582860162000214565b9150509250929050565b612bc1806200033d6000396000f3fe608060405234801561001057600080fd5b506004361061011a5760003560e01c80634e1273f4116100b2578063a217fddf11610081578063d547741f11610066578063d547741f1461027d578063e985e9c514610290578063f242432a146102cc57600080fd5b8063a217fddf14610262578063a22cb4651461026a57600080fd5b80634e1273f4146101ee57806362fcfc8e1461020e57806391d148541461022157806395d89b411461025a57600080fd5b8063248a9ca3116100ee578063248a9ca3146101905780632eb2c2d6146101b35780632f2ff15d146101c857806336568abe146101db57600080fd5b8062fdd58e1461011f57806301ffc9a71461014557806306fdde03146101685780630e89341c1461017d575b600080fd5b61013261012d366004611c53565b6102df565b6040519081526020015b60405180910390f35b610158610153366004611c93565b61038b565b604051901515815260200161013c565b610170610396565b60405161013c9190611d00565b61017061018b366004611d13565b610424565b61013261019e366004611d13565b60009081526005602052604090206001015490565b6101c66101c1366004611e82565b61042f565b005b6101c66101d6366004611f2c565b6104d1565b6101c66101e9366004611f2c565b6104fb565b6102016101fc366004611f58565b610587565b60405161013c919061205e565b6101c661021c366004612071565b6106c5565b61015861022f366004611f2c565b60009182526005602090815260408084206001600160a01b0393909316845291905290205460ff1690565b6101706107da565b610132600081565b6101c66102783660046120e3565b6107e7565b6101c661028b366004611f2c565b6107f2565b61015861029e36600461211f565b6001600160a01b03918216600090815260016020908152604080832093909416825291909152205460ff1690565b6101c66102da366004612149565b610817565b60006001600160a01b0383166103625760405162461bcd60e51b815260206004820152602a60248201527f455243313135353a2061646472657373207a65726f206973206e6f742061207660448201527f616c6964206f776e65720000000000000000000000000000000000000000000060648201526084015b60405180910390fd5b506000818152602081815260408083206001600160a01b03861684529091529020545b92915050565b6000610385826108b2565b600780546103a3906121ae565b80601f01602080910402602001604051908101604052809291908181526020018280546103cf906121ae565b801561041c5780601f106103f15761010080835404028352916020019161041c565b820191906000526020600020905b8154815290600101906020018083116103ff57829003601f168201915b505050505081565b6060610385826108f0565b6001600160a01b03851633148061044b575061044b853361029e565b6104bd5760405162461bcd60e51b815260206004820152602e60248201527f455243313135353a2063616c6c6572206973206e6f7420746f6b656e206f776e60448201527f6572206f7220617070726f7665640000000000000000000000000000000000006064820152608401610359565b6104ca85858585856109d0565b5050505050565b6000828152600560205260409020600101546104ec81610c51565b6104f68383610c5e565b505050565b6001600160a01b03811633146105795760405162461bcd60e51b815260206004820152602f60248201527f416363657373436f6e74726f6c3a2063616e206f6e6c792072656e6f756e636560448201527f20726f6c657320666f722073656c6600000000000000000000000000000000006064820152608401610359565b6105838282610d00565b5050565b606081518351146106005760405162461bcd60e51b815260206004820152602960248201527f455243313135353a206163636f756e747320616e6420696473206c656e67746860448201527f206d69736d6174636800000000000000000000000000000000000000000000006064820152608401610359565b6000835167ffffffffffffffff81111561061c5761061c611d2c565b604051908082528060200260200182016040528015610645578160200160208202803683370190505b50905060005b84518110156106bd57610690858281518110610669576106696121e8565b6020026020010151858381518110610683576106836121e8565b60200260200101516102df565b8282815181106106a2576106a26121e8565b60209081029190910101526106b681612214565b905061064b565b509392505050565b6001600160a01b03831615806106e257506001600160a01b038216155b15610719576040517f1326d6d500000000000000000000000000000000000000000000000000000000815260040160405180910390fd5b61073783600654600160405180602001604052806000815250610d83565b61075582600654600160405180602001604052806000815250610d83565b61076c60065461076760065484610ec2565b610f2b565b60016006600082825461077f919061222d565b92505081905550816001600160a01b0316836001600160a01b03167f07a15d2ae302b602cdc03baf37bdde327bcfc3293d84ee8f28ea0c4fe01ab2f66006546040516107cd91815260200190565b60405180910390a3505050565b600880546103a3906121ae565b610583338383610f88565b60008281526005602052604090206001015461080d81610c51565b6104f68383610d00565b6001600160a01b0385163314806108335750610833853361029e565b6108a55760405162461bcd60e51b815260206004820152602e60248201527f455243313135353a2063616c6c6572206973206e6f7420746f6b656e206f776e60448201527f6572206f7220617070726f7665640000000000000000000000000000000000006064820152608401610359565b6104ca8585858585611074565b60006001600160e01b031982167f7965db0b00000000000000000000000000000000000000000000000000000000148061038557506103858261122d565b60008181526004602052604081208054606092919061090e906121ae565b80601f016020809104026020016040519081016040528092919081815260200182805461093a906121ae565b80156109875780601f1061095c57610100808354040283529160200191610987565b820191906000526020600020905b81548152906001019060200180831161096a57829003601f168201915b5050505050905060008151116109a5576109a0836112c8565b6109c9565b6003816040516020016109b992919061225c565b6040516020818303038152906040525b9392505050565b8151835114610a475760405162461bcd60e51b815260206004820152602860248201527f455243313135353a2069647320616e6420616d6f756e7473206c656e6774682060448201527f6d69736d617463680000000000000000000000000000000000000000000000006064820152608401610359565b6001600160a01b038416610aab5760405162461bcd60e51b815260206004820152602560248201527f455243313135353a207472616e7366657220746f20746865207a65726f206164604482015264647265737360d81b6064820152608401610359565b33610aba81878787878761135c565b60005b8451811015610be3576000858281518110610ada57610ada6121e8565b602002602001015190506000858381518110610af857610af86121e8565b602090810291909101810151600084815280835260408082206001600160a01b038e168352909352919091205490915081811015610b8b5760405162461bcd60e51b815260206004820152602a60248201527f455243313135353a20696e73756666696369656e742062616c616e636520666f60448201526939103a3930b739b332b960b11b6064820152608401610359565b6000838152602081815260408083206001600160a01b038e8116855292528083208585039055908b16825281208054849290610bc890849061222d565b9250508190555050505080610bdc90612214565b9050610abd565b50846001600160a01b0316866001600160a01b0316826001600160a01b03167f4a39dc06d4c0dbc64b70af90fd698a233a518aa5d07e595d983b8c0526c8f7fb8787604051610c339291906122e3565b60405180910390a4610c498187878787876113c5565b505050505050565b610c5b813361156a565b50565b60008281526005602090815260408083206001600160a01b038516845290915290205460ff166105835760008281526005602090815260408083206001600160a01b03851684529091529020805460ff19166001179055610cbc3390565b6001600160a01b0316816001600160a01b0316837f2f8788117e7eff1d82e926ec794901d17c78024a50270940304540a733656f0d60405160405180910390a45050565b60008281526005602090815260408083206001600160a01b038516845290915290205460ff16156105835760008281526005602090815260408083206001600160a01b0385168085529252808320805460ff1916905551339285917ff6391f5c32d9c69d2a47ea670b442974b53935d1edc7fd64eb21e047a839171b9190a45050565b6001600160a01b038416610dff5760405162461bcd60e51b815260206004820152602160248201527f455243313135353a206d696e7420746f20746865207a65726f2061646472657360448201527f73000000000000000000000000000000000000000000000000000000000000006064820152608401610359565b336000610e0b856115df565b90506000610e18856115df565b9050610e298360008985858961135c565b6000868152602081815260408083206001600160a01b038b16845290915281208054879290610e5990849061222d565b909155505060408051878152602081018790526001600160a01b03808a1692600092918716917fc3d58168c5ae7397731d063d5bbf3d657854427343f4c083240f7aacaa2d0f62910160405180910390a4610eb98360008989898961162a565b50505050505050565b60606000610ecf84611726565b610ed8846117c6565b604051602001610ee9929190612311565b6040516020818303038152906040529050610f038161180f565b604051602001610f1391906124a0565b60405160208183030381529060405291505092915050565b6000828152600460205260409020610f43828261252b565b50817f6bb7ff708619ba0610cba295a58592e0451dee2622938c8755667688daf3529b610f6f84610424565b604051610f7c9190611d00565b60405180910390a25050565b816001600160a01b0316836001600160a01b03160361100f5760405162461bcd60e51b815260206004820152602960248201527f455243313135353a2073657474696e6720617070726f76616c2073746174757360448201527f20666f722073656c6600000000000000000000000000000000000000000000006064820152608401610359565b6001600160a01b03838116600081815260016020908152604080832094871680845294825291829020805460ff191686151590811790915591519182527f17307eab39ab6107e8899845ad3d59bd9653f200f220920489ca2b5937696c3191016107cd565b6001600160a01b0384166110d85760405162461bcd60e51b815260206004820152602560248201527f455243313135353a207472616e7366657220746f20746865207a65726f206164604482015264647265737360d81b6064820152608401610359565b3360006110e4856115df565b905060006110f1856115df565b905061110183898985858961135c565b6000868152602081815260408083206001600160a01b038c168452909152902054858110156111855760405162461bcd60e51b815260206004820152602a60248201527f455243313135353a20696e73756666696369656e742062616c616e636520666f60448201526939103a3930b739b332b960b11b6064820152608401610359565b6000878152602081815260408083206001600160a01b038d8116855292528083208985039055908a168252812080548892906111c290849061222d565b909155505060408051888152602081018890526001600160a01b03808b16928c821692918816917fc3d58168c5ae7397731d063d5bbf3d657854427343f4c083240f7aacaa2d0f62910160405180910390a4611222848a8a8a8a8a61162a565b505050505050505050565b60006001600160e01b031982167fd9b67a2600000000000000000000000000000000000000000000000000000000148061129057506001600160e01b031982167f0e89341c00000000000000000000000000000000000000000000000000000000145b8061038557507f01ffc9a7000000000000000000000000000000000000000000000000000000006001600160e01b0319831614610385565b6060600280546112d7906121ae565b80601f0160208091040260200160405190810160405280929190818152602001828054611303906121ae565b80156113505780601f1061132557610100808354040283529160200191611350565b820191906000526020600020905b81548152906001019060200180831161133357829003601f168201915b50505050509050919050565b6001600160a01b038516158061137957506001600160a01b038416155b610c495760405162461bcd60e51b815260206004820152601d60248201527f4e6f7420616c6c6f77656420746f207472616e7366657220746f6b656e0000006044820152606401610359565b6001600160a01b0384163b15610c495760405163bc197c8160e01b81526001600160a01b0385169063bc197c819061140990899089908890889088906004016125eb565b6020604051808303816000875af1925050508015611444575060408051601f3d908101601f1916820190925261144191810190612649565b60015b6114f957611450612666565b806308c379a0036114895750611464612682565b8061146f575061148b565b8060405162461bcd60e51b81526004016103599190611d00565b505b60405162461bcd60e51b815260206004820152603460248201527f455243313135353a207472616e7366657220746f206e6f6e2d4552433131353560448201527f526563656976657220696d706c656d656e7465720000000000000000000000006064820152608401610359565b6001600160e01b0319811663bc197c8160e01b14610eb95760405162461bcd60e51b815260206004820152602860248201527f455243313135353a204552433131353552656365697665722072656a656374656044820152676420746f6b656e7360c01b6064820152608401610359565b60008281526005602090815260408083206001600160a01b038516845290915290205460ff166105835761159d81611962565b6115a8836020611974565b6040516020016115b992919061270c565b60408051601f198184030181529082905262461bcd60e51b825261035991600401611d00565b60408051600180825281830190925260609160009190602080830190803683370190505090508281600081518110611619576116196121e8565b602090810291909101015292915050565b6001600160a01b0384163b15610c495760405163f23a6e6160e01b81526001600160a01b0385169063f23a6e619061166e908990899088908890889060040161278d565b6020604051808303816000875af19250505080156116a9575060408051601f3d908101601f191682019092526116a691810190612649565b60015b6116b557611450612666565b6001600160e01b0319811663f23a6e6160e01b14610eb95760405162461bcd60e51b815260206004820152602860248201527f455243313135353a204552433131353552656365697665722072656a656374656044820152676420746f6b656e7360c01b6064820152608401610359565b6060600061173383611b55565b600101905060008167ffffffffffffffff81111561175357611753611d2c565b6040519080825280601f01601f19166020018201604052801561177d576020820181803683370190505b5090508181016020015b600019017f3031323334353637383961626364656600000000000000000000000000000000600a86061a8153600a850494508461178757509392505050565b60606000826117d442611726565b6040516020016117e59291906127d0565b60405160208183030381529060405290506117ff8161180f565b6040516020016109b99190612ab6565b6060815160000361182e57505060408051602081019091526000815290565b6000604051806060016040528060408152602001612b4c604091399050600060038451600261185d919061222d565b6118679190612afb565b611872906004612b1d565b67ffffffffffffffff81111561188a5761188a611d2c565b6040519080825280601f01601f1916602001820160405280156118b4576020820181803683370190505b509050600182016020820185865187015b80821015611920576003820191508151603f8160121c168501518453600184019350603f81600c1c168501518453600184019350603f8160061c168501518453600184019350603f81168501518453506001830192506118c5565b505060038651066001811461193c576002811461194f57611957565b603d6001830353603d6002830353611957565b603d60018303535b509195945050505050565b60606103856001600160a01b03831660145b60606000611983836002612b1d565b61198e90600261222d565b67ffffffffffffffff8111156119a6576119a6611d2c565b6040519080825280601f01601f1916602001820160405280156119d0576020820181803683370190505b5090507f300000000000000000000000000000000000000000000000000000000000000081600081518110611a0757611a076121e8565b60200101906001600160f81b031916908160001a9053507f780000000000000000000000000000000000000000000000000000000000000081600181518110611a5257611a526121e8565b60200101906001600160f81b031916908160001a9053506000611a76846002612b1d565b611a8190600161222d565b90505b6001811115611b06577f303132333435363738396162636465660000000000000000000000000000000085600f1660108110611ac257611ac26121e8565b1a60f81b828281518110611ad857611ad86121e8565b60200101906001600160f81b031916908160001a90535060049490941c93611aff81612b34565b9050611a84565b5083156109c95760405162461bcd60e51b815260206004820181905260248201527f537472696e67733a20686578206c656e67746820696e73756666696369656e746044820152606401610359565b6000807a184f03e93ff9f4daa797ed6e38ed64bf6a1f0100000000000000008310611b9e577a184f03e93ff9f4daa797ed6e38ed64bf6a1f010000000000000000830492506040015b6d04ee2d6d415b85acef81000000008310611bca576d04ee2d6d415b85acef8100000000830492506020015b662386f26fc100008310611be857662386f26fc10000830492506010015b6305f5e1008310611c00576305f5e100830492506008015b6127108310611c1457612710830492506004015b60648310611c26576064830492506002015b600a83106103855760010192915050565b80356001600160a01b0381168114611c4e57600080fd5b919050565b60008060408385031215611c6657600080fd5b611c6f83611c37565b946020939093013593505050565b6001600160e01b031981168114610c5b57600080fd5b600060208284031215611ca557600080fd5b81356109c981611c7d565b60005b83811015611ccb578181015183820152602001611cb3565b50506000910152565b60008151808452611cec816020860160208601611cb0565b601f01601f19169290920160200192915050565b6020815260006109c96020830184611cd4565b600060208284031215611d2557600080fd5b5035919050565b634e487b7160e01b600052604160045260246000fd5b601f8201601f1916810167ffffffffffffffff81118282101715611d6857611d68611d2c565b6040525050565b600067ffffffffffffffff821115611d8957611d89611d2c565b5060051b60200190565b600082601f830112611da457600080fd5b81356020611db182611d6f565b604051611dbe8282611d42565b83815260059390931b8501820192828101915086841115611dde57600080fd5b8286015b84811015611df95780358352918301918301611de2565b509695505050505050565b600067ffffffffffffffff831115611e1e57611e1e611d2c565b604051611e35601f8501601f191660200182611d42565b809150838152848484011115611e4a57600080fd5b83836020830137600060208583010152509392505050565b600082601f830112611e7357600080fd5b6109c983833560208501611e04565b600080600080600060a08688031215611e9a57600080fd5b611ea386611c37565b9450611eb160208701611c37565b9350604086013567ffffffffffffffff80821115611ece57600080fd5b611eda89838a01611d93565b94506060880135915080821115611ef057600080fd5b611efc89838a01611d93565b93506080880135915080821115611f1257600080fd5b50611f1f88828901611e62565b9150509295509295909350565b60008060408385031215611f3f57600080fd5b82359150611f4f60208401611c37565b90509250929050565b60008060408385031215611f6b57600080fd5b823567ffffffffffffffff80821115611f8357600080fd5b818501915085601f830112611f9757600080fd5b81356020611fa482611d6f565b604051611fb18282611d42565b83815260059390931b8501820192828101915089841115611fd157600080fd5b948201945b83861015611ff657611fe786611c37565b82529482019490820190611fd6565b9650508601359250508082111561200c57600080fd5b5061201985828601611d93565b9150509250929050565b600081518084526020808501945080840160005b8381101561205357815187529582019590820190600101612037565b509495945050505050565b6020815260006109c96020830184612023565b60008060006060848603121561208657600080fd5b61208f84611c37565b925061209d60208501611c37565b9150604084013567ffffffffffffffff8111156120b957600080fd5b8401601f810186136120ca57600080fd5b6120d986823560208401611e04565b9150509250925092565b600080604083850312156120f657600080fd5b6120ff83611c37565b91506020830135801515811461211457600080fd5b809150509250929050565b6000806040838503121561213257600080fd5b61213b83611c37565b9150611f4f60208401611c37565b600080600080600060a0868803121561216157600080fd5b61216a86611c37565b945061217860208701611c37565b93506040860135925060608601359150608086013567ffffffffffffffff8111156121a257600080fd5b611f1f88828901611e62565b600181811c908216806121c257607f821691505b6020821081036121e257634e487b7160e01b600052602260045260246000fd5b50919050565b634e487b7160e01b600052603260045260246000fd5b634e487b7160e01b600052601160045260246000fd5b600060018201612226576122266121fe565b5060010190565b80820180821115610385576103856121fe565b60008151612252818560208601611cb0565b9290920192915050565b600080845461226a816121ae565b600182811680156122825760018114612297576122c6565b60ff19841687528215158302870194506122c6565b8860005260208060002060005b858110156122bd5781548a8201529084019082016122a4565b50505082870194505b5050505083516122da818360208801611cb0565b01949350505050565b6040815260006122f66040830185612023565b82810360208401526123088185612023565b95945050505050565b7f7b0000000000000000000000000000000000000000000000000000000000000081527f226e616d65223a2022736d61727420706179726f6c6c20636f6e74726163742060018201527f2300000000000000000000000000000000000000000000000000000000000000602182015260008351612395816022850160208801611cb0565b7f222c0000000000000000000000000000000000000000000000000000000000006022918401918201527f226465736372697074696f6e223a2022736d61727420706179726f6c6c206f6e60248201527f20636861696e222c00000000000000000000000000000000000000000000000060448201527f22696d616765223a202200000000000000000000000000000000000000000000604c8201528351612444816056840160208801611cb0565b7f2200000000000000000000000000000000000000000000000000000000000000605692909101918201527f7d000000000000000000000000000000000000000000000000000000000000006057820152605801949350505050565b7f646174613a6170706c69636174696f6e2f6a736f6e3b6261736536342c0000008152600082516124d881601d850160208701611cb0565b91909101601d0192915050565b601f8211156104f657600081815260208120601f850160051c8101602086101561250c5750805b601f850160051c820191505b81811015610c4957828155600101612518565b815167ffffffffffffffff81111561254557612545611d2c565b6125598161255384546121ae565b846124e5565b602080601f83116001811461258e57600084156125765750858301515b600019600386901b1c1916600185901b178555610c49565b600085815260208120601f198616915b828110156125bd5788860151825594840194600190910190840161259e565b50858210156125db5787850151600019600388901b60f8161c191681555b5050505050600190811b01905550565b60006001600160a01b03808816835280871660208401525060a0604083015261261760a0830186612023565b82810360608401526126298186612023565b9050828103608084015261263d8185611cd4565b98975050505050505050565b60006020828403121561265b57600080fd5b81516109c981611c7d565b600060033d111561267f5760046000803e5060005160e01c5b90565b600060443d10156126905790565b6040516003193d81016004833e81513d67ffffffffffffffff81602484011181841117156126c057505050505090565b82850191508151818111156126d85750505050505090565b843d87010160208285010111156126f25750505050505090565b61270160208286010187611d42565b509095945050505050565b7f416363657373436f6e74726f6c3a206163636f756e7420000000000000000000815260008351612744816017850160208801611cb0565b7f206973206d697373696e6720726f6c65200000000000000000000000000000006017918401918201528351612781816028840160208801611cb0565b01602801949350505050565b60006001600160a01b03808816835280871660208401525084604083015283606083015260a060808301526127c560a0830184611cd4565b979650505050505050565b7f3c73766720786d6c6e733d22687474703a2f2f7777772e77332e6f72672f323081527f30302f73766722207072657365727665417370656374526174696f3d22784d6960208201527f6e594d696e206d656574222076696577426f783d22302030203335302033353060408201527f223e00000000000000000000000000000000000000000000000000000000000060608201527f3c7374796c653e2e62617365207b2066696c6c3a2077686974653b20666f6e7460628201527f2d66616d696c793a2073657269663b20666f6e742d73697a653a20313470783b60828201527f207d3c2f7374796c653e0000000000000000000000000000000000000000000060a28201527f3c726563742077696474683d223130302522206865696768743d22313030252260ac8201527f2066696c6c3d22626c61636b22202f3e0000000000000000000000000000000060cc8201527f3c7465787420783d223530252220793d223430252220636c6173733d2262617360dc8201527f652220646f6d696e616e742d626173656c696e653d226d6964646c652220746560fc8201527f78742d616e63686f723d226d6964646c65223e0000000000000000000000000061011c8201526000612aae612a856129b8612a7f612a566129e16129b861012f89018b612240565b7f3c2f746578743e00000000000000000000000000000000000000000000000000815260070190565b7f3c7465787420783d223530252220793d223530252220636c6173733d2262617381527f652220646f6d696e616e742d626173656c696e653d226d6964646c652220746560208201527f78742d616e63686f723d226d6964646c65223e00000000000000000000000000604082015260530190565b7f426c6f636b4461746554696d653a2000000000000000000000000000000000008152600f0190565b86612240565b7f3c2f7376673e0000000000000000000000000000000000000000000000000000815260060190565b949350505050565b7f646174613a696d6167652f7376672b786d6c3b6261736536342c000000000000815260008251612aee81601a850160208701611cb0565b91909101601a0192915050565b600082612b1857634e487b7160e01b600052601260045260246000fd5b500490565b8082028115828204841417610385576103856121fe565b600081612b4357612b436121fe565b50600019019056fe4142434445464748494a4b4c4d4e4f505152535455565758595a6162636465666768696a6b6c6d6e6f707172737475767778797a303132333435363738392b2fa2646970667358221220aa73ccce8f9448c31668949ef7f2430a4f5a6d31db74ac57c347b3eb43eebec964736f6c63430008120033",
  "devdoc": {
    "events": {
      "ApprovalForAll(address,address,bool)": {
        "details": "Emitted when `account` grants or revokes permission to `operator` to transfer their tokens, according to `approved`."
      },
      "RoleAdminChanged(bytes32,bytes32,bytes32)": {
        "details": "Emitted when `newAdminRole` is set as ``role``'s admin role, replacing `previousAdminRole` `DEFAULT_ADMIN_ROLE` is the starting admin for all roles, despite {RoleAdminChanged} not being emitted signaling this. _Available since v3.1._"
      },
      "RoleGranted(bytes32,address,address)": {
        "details": "Emitted when `account` is granted `role`. `sender` is the account that originated the contract call, an admin role bearer except when using {AccessControl-_setupRole}."
      },
      "RoleRevoked(bytes32,address,address)": {
        "details": "Emitted when `account` is revoked `role`. `sender` is the account that originated the contract call:   - if using `revokeRole`, it is the admin role bearer   - if using `renounceRole`, it is the role bearer (i.e. `account`)"
      },
      "TransferBatch(address,address,address,uint256[],uint256[])": {
        "details": "Equivalent to multiple {TransferSingle} events, where `operator`, `from` and `to` are the same for all transfers."
      },
      "TransferSingle(address,address,address,uint256,uint256)": {
        "details": "Emitted when `value` tokens of token type `id` are transferred from `from` to `to` by `operator`."
      },
      "URI(string,uint256)": {
        "details": "Emitted when the URI for token type `id` changes to `value`, if it is a non-programmatic URI. If an {URI} event was emitted for `id`, the standard https://eips.ethereum.org/EIPS/eip-1155#metadata-extensions[guarantees] that `value` will equal the value returned by {IERC1155MetadataURI-uri}."
      }
    },
    "kind": "dev",
    "methods": {
      "balanceOf(address,uint256)": {
        "details": "See {IERC1155-balanceOf}. Requirements: - `account` cannot be the zero address."
      },
      "balanceOfBatch(address[],uint256[])": {
        "details": "See {IERC1155-balanceOfBatch}. Requirements: - `accounts` and `ids` must have the same length."
      },
      "getRoleAdmin(bytes32)": {
        "details": "Returns the admin role that controls `role`. See {grantRole} and {revokeRole}. To change a role's admin, use {_setRoleAdmin}."
      },
      "grantRole(bytes32,address)": {
        "details": "Grants `role` to `account`. If `account` had not been already granted `role`, emits a {RoleGranted} event. Requirements: - the caller must have ``role``'s admin role. May emit a {RoleGranted} event."
      },
      "hasRole(bytes32,address)": {
        "details": "Returns `true` if `account` has been granted `role`."
      },
      "isApprovedForAll(address,address)": {
        "details": "See {IERC1155-isApprovedForAll}."
      },
      "renounceRole(bytes32,address)": {
        "details": "Revokes `role` from the calling account. Roles are often managed via {grantRole} and {revokeRole}: this function's purpose is to provide a mechanism for accounts to lose their privileges if they are compromised (such as when a trusted device is misplaced). If the calling account had been revoked `role`, emits a {RoleRevoked} event. Requirements: - the caller must be `account`. May emit a {RoleRevoked} event."
      },
      "revokeRole(bytes32,address)": {
        "details": "Revokes `role` from `account`. If `account` had been granted `role`, emits a {RoleRevoked} event. Requirements: - the caller must have ``role``'s admin role. May emit a {RoleRevoked} event."
      },
      "safeBatchTransferFrom(address,address,uint256[],uint256[],bytes)": {
        "details": "See {IERC1155-safeBatchTransferFrom}."
      },
      "safeTransferFrom(address,address,uint256,uint256,bytes)": {
        "details": "See {IERC1155-safeTransferFrom}."
      },
      "setApprovalForAll(address,bool)": {
        "details": "See {IERC1155-setApprovalForAll}."
      }
    },
    "version": 1
  },
  "userdoc": {
    "kind": "user",
    "methods": {},
    "version": 1
  },
  "storageLayout": {
    "storage": [
      {
        "astId": 414,
        "contract": "contracts/ContractNFT1155.sol:ContractNFT1155",
        "label": "_balances",
        "offset": 0,
        "slot": "0",
        "type": "t_mapping(t_uint256,t_mapping(t_address,t_uint256))"
      },
      {
        "astId": 420,
        "contract": "contracts/ContractNFT1155.sol:ContractNFT1155",
        "label": "_operatorApprovals",
        "offset": 0,
        "slot": "1",
        "type": "t_mapping(t_address,t_mapping(t_address,t_bool))"
      },
      {
        "astId": 422,
        "contract": "contracts/ContractNFT1155.sol:ContractNFT1155",
        "label": "_uri",
        "offset": 0,
        "slot": "2",
        "type": "t_string_storage"
      },
      {
        "astId": 1787,
        "contract": "contracts/ContractNFT1155.sol:ContractNFT1155",
        "label": "_baseURI",
        "offset": 0,
        "slot": "3",
        "type": "t_string_storage"
      },
      {
        "astId": 1791,
        "contract": "contracts/ContractNFT1155.sol:ContractNFT1155",
        "label": "_tokenURIs",
        "offset": 0,
        "slot": "4",
        "type": "t_mapping(t_uint256,t_string_storage)"
      },
      {
        "astId": 24,
        "contract": "contracts/ContractNFT1155.sol:ContractNFT1155",
        "label": "_roles",
        "offset": 0,
        "slot": "5",
        "type": "t_mapping(t_bytes32,t_struct(RoleData)19_storage)"
      },
      {
        "astId": 3376,
        "contract": "contracts/ContractNFT1155.sol:ContractNFT1155",
        "label": "_tokenIdCounter",
        "offset": 0,
        "slot": "6",
        "type": "t_uint256"
      },
      {
        "astId": 3378,
        "contract": "contracts/ContractNFT1155.sol:ContractNFT1155",
        "label": "name",
        "offset": 0,
        "slot": "7",
        "type": "t_string_storage"
      },
      {
        "astId": 3380,
        "contract": "contracts/ContractNFT1155.sol:ContractNFT1155",
        "label": "symbol",
        "offset": 0,
        "slot": "8",
        "type": "t_string_storage"
      }
    ],
    "types": {
      "t_address": {
        "encoding": "inplace",
        "label": "address",
        "numberOfBytes": "20"
      },
      "t_bool": {
        "encoding": "inplace",
        "label": "bool",
        "numberOfBytes": "1"
      },
      "t_bytes32": {
        "encoding": "inplace",
        "label": "bytes32",
        "numberOfBytes": "32"
      },
      "t_mapping(t_address,t_bool)": {
        "encoding": "mapping",
        "key": "t_address",
        "label": "mapping(address => bool)",
        "numberOfBytes": "32",
        "value": "t_bool"
      },
      "t_mapping(t_address,t_mapping(t_address,t_bool))": {
        "encoding": "mapping",
        "key": "t_address",
        "label": "mapping(address => mapping(address => bool))",
        "numberOfBytes": "32",
        "value": "t_mapping(t_address,t_bool)"
      },
      "t_mapping(t_address,t_uint256)": {
        "encoding": "mapping",
        "key": "t_address",
        "label": "mapping(address => uint256)",
        "numberOfBytes": "32",
        "value": "t_uint256"
      },
      "t_mapping(t_bytes32,t_struct(RoleData)19_storage)": {
        "encoding": "mapping",
        "key": "t_bytes32",
        "label": "mapping(bytes32 => struct AccessControl.RoleData)",
        "numberOfBytes": "32",
        "value": "t_struct(RoleData)19_storage"
      },
      "t_mapping(t_uint256,t_mapping(t_address,t_uint256))": {
        "encoding": "mapping",
        "key": "t_uint256",
        "label": "mapping(uint256 => mapping(address => uint256))",
        "numberOfBytes": "32",
        "value": "t_mapping(t_address,t_uint256)"
      },
      "t_mapping(t_uint256,t_string_storage)": {
        "encoding": "mapping",
        "key": "t_uint256",
        "label": "mapping(uint256 => string)",
        "numberOfBytes": "32",
        "value": "t_string_storage"
      },
      "t_string_storage": {
        "encoding": "bytes",
        "label": "string",
        "numberOfBytes": "32"
      },
      "t_struct(RoleData)19_storage": {
        "encoding": "inplace",
        "label": "struct AccessControl.RoleData",
        "members": [
          {
            "astId": 16,
            "contract": "contracts/ContractNFT1155.sol:ContractNFT1155",
            "label": "members",
            "offset": 0,
            "slot": "0",
            "type": "t_mapping(t_address,t_bool)"
          },
          {
            "astId": 18,
            "contract": "contracts/ContractNFT1155.sol:ContractNFT1155",
            "label": "adminRole",
            "offset": 0,
            "slot": "1",
            "type": "t_bytes32"
          }
        ],
        "numberOfBytes": "64"
      },
      "t_uint256": {
        "encoding": "inplace",
        "label": "uint256",
        "numberOfBytes": "32"
      }
    }
  }
}