{
  "_format": "hh-sol-artifact-1",
  "contractName": "MerkleTree",
  "sourceName": "contracts/ido.sol",
  "abi": [
    {
      "inputs": [
        {
          "internalType": "bytes32",
          "name": "merkleroot",
          "type": "bytes32"
        }
      ],
      "stateMutability": "nonpayable",
      "type": "constructor"
    },
    {
      "anonymous": false,
      "inputs": [
        {
          "indexed": true,
          "internalType": "address",
          "name": "owner",
          "type": "address"
        },
        {
          "indexed": true,
          "internalType": "address",
          "name": "spender",
          "type": "address"
        },
        {
          "indexed": false,
          "internalType": "uint256",
          "name": "value",
          "type": "uint256"
        }
      ],
      "name": "Approval",
      "type": "event"
    },
    {
      "anonymous": false,
      "inputs": [
        {
          "indexed": true,
          "internalType": "address",
          "name": "from",
          "type": "address"
        },
        {
          "indexed": true,
          "internalType": "address",
          "name": "to",
          "type": "address"
        },
        {
          "indexed": false,
          "internalType": "uint256",
          "name": "value",
          "type": "uint256"
        }
      ],
      "name": "Transfer",
      "type": "event"
    },
    {
      "inputs": [
        {
          "internalType": "address",
          "name": "owner",
          "type": "address"
        },
        {
          "internalType": "address",
          "name": "spender",
          "type": "address"
        }
      ],
      "name": "allowance",
      "outputs": [
        {
          "internalType": "uint256",
          "name": "",
          "type": "uint256"
        }
      ],
      "stateMutability": "view",
      "type": "function"
    },
    {
      "inputs": [
        {
          "internalType": "address",
          "name": "spender",
          "type": "address"
        },
        {
          "internalType": "uint256",
          "name": "amount",
          "type": "uint256"
        }
      ],
      "name": "approve",
      "outputs": [
        {
          "internalType": "bool",
          "name": "",
          "type": "bool"
        }
      ],
      "stateMutability": "nonpayable",
      "type": "function"
    },
    {
      "inputs": [
        {
          "internalType": "address",
          "name": "account",
          "type": "address"
        }
      ],
      "name": "balanceOf",
      "outputs": [
        {
          "internalType": "uint256",
          "name": "",
          "type": "uint256"
        }
      ],
      "stateMutability": "view",
      "type": "function"
    },
    {
      "inputs": [],
      "name": "decimals",
      "outputs": [
        {
          "internalType": "uint8",
          "name": "",
          "type": "uint8"
        }
      ],
      "stateMutability": "view",
      "type": "function"
    },
    {
      "inputs": [
        {
          "internalType": "address",
          "name": "spender",
          "type": "address"
        },
        {
          "internalType": "uint256",
          "name": "subtractedValue",
          "type": "uint256"
        }
      ],
      "name": "decreaseAllowance",
      "outputs": [
        {
          "internalType": "bool",
          "name": "",
          "type": "bool"
        }
      ],
      "stateMutability": "nonpayable",
      "type": "function"
    },
    {
      "inputs": [
        {
          "internalType": "address",
          "name": "spender",
          "type": "address"
        },
        {
          "internalType": "uint256",
          "name": "addedValue",
          "type": "uint256"
        }
      ],
      "name": "increaseAllowance",
      "outputs": [
        {
          "internalType": "bool",
          "name": "",
          "type": "bool"
        }
      ],
      "stateMutability": "nonpayable",
      "type": "function"
    },
    {
      "inputs": [
        {
          "internalType": "bytes32[]",
          "name": "proof",
          "type": "bytes32[]"
        }
      ],
      "name": "isWhite",
      "outputs": [
        {
          "internalType": "bool",
          "name": "",
          "type": "bool"
        }
      ],
      "stateMutability": "view",
      "type": "function"
    },
    {
      "inputs": [
        {
          "internalType": "address",
          "name": "account",
          "type": "address"
        },
        {
          "internalType": "bytes32[]",
          "name": "proof",
          "type": "bytes32[]"
        }
      ],
      "name": "mint",
      "outputs": [],
      "stateMutability": "nonpayable",
      "type": "function"
    },
    {
      "inputs": [],
      "name": "name",
      "outputs": [
        {
          "internalType": "string",
          "name": "",
          "type": "string"
        }
      ],
      "stateMutability": "view",
      "type": "function"
    },
    {
      "inputs": [],
      "name": "root",
      "outputs": [
        {
          "internalType": "bytes32",
          "name": "",
          "type": "bytes32"
        }
      ],
      "stateMutability": "view",
      "type": "function"
    },
    {
      "inputs": [],
      "name": "symbol",
      "outputs": [
        {
          "internalType": "string",
          "name": "",
          "type": "string"
        }
      ],
      "stateMutability": "view",
      "type": "function"
    },
    {
      "inputs": [],
      "name": "totalSupply",
      "outputs": [
        {
          "internalType": "uint256",
          "name": "",
          "type": "uint256"
        }
      ],
      "stateMutability": "view",
      "type": "function"
    },
    {
      "inputs": [
        {
          "internalType": "address",
          "name": "to",
          "type": "address"
        },
        {
          "internalType": "uint256",
          "name": "amount",
          "type": "uint256"
        }
      ],
      "name": "transfer",
      "outputs": [
        {
          "internalType": "bool",
          "name": "",
          "type": "bool"
        }
      ],
      "stateMutability": "nonpayable",
      "type": "function"
    },
    {
      "inputs": [
        {
          "internalType": "address",
          "name": "from",
          "type": "address"
        },
        {
          "internalType": "address",
          "name": "to",
          "type": "address"
        },
        {
          "internalType": "uint256",
          "name": "amount",
          "type": "uint256"
        }
      ],
      "name": "transferFrom",
      "outputs": [
        {
          "internalType": "bool",
          "name": "",
          "type": "bool"
        }
      ],
      "stateMutability": "nonpayable",
      "type": "function"
    },
    {
      "inputs": [
        {
          "internalType": "address",
          "name": "",
          "type": "address"
        }
      ],
      "name": "whiteLists",
      "outputs": [
        {
          "internalType": "bool",
          "name": "",
          "type": "bool"
        }
      ],
      "stateMutability": "view",
      "type": "function"
    }
  ],
  "bytecode": "0x60a06040523480156200001157600080fd5b50604051620010e0380380620010e083398101604081905262000034916200009f565b60405180604001604052806009815260200168105490d15390d2515360ba1b8152506040518060400160405280600481526020016318da595b60e21b81525081600390816200008491906200015e565b5060046200009382826200015e565b5050506080526200022a565b600060208284031215620000b257600080fd5b5051919050565b634e487b7160e01b600052604160045260246000fd5b600181811c90821680620000e457607f821691505b6020821081036200010557634e487b7160e01b600052602260045260246000fd5b50919050565b601f8211156200015957600081815260208120601f850160051c81016020861015620001345750805b601f850160051c820191505b81811015620001555782815560010162000140565b5050505b505050565b81516001600160401b038111156200017a576200017a620000b9565b62000192816200018b8454620000cf565b846200010b565b602080601f831160018114620001ca5760008415620001b15750858301515b600019600386901b1c1916600185901b17855562000155565b600085815260208120601f198616915b82811015620001fb57888601518255948401946001909101908401620001da565b50858210156200021a5787850151600019600388901b60f8161c191681555b5050505050600190811b01905550565b608051610e8c6200025460003960008181610262015281816103e60152610a650152610e8c6000f3fe608060405234801561001057600080fd5b50600436106100f55760003560e01c80636df91d0311610097578063a457c2d711610066578063a457c2d7146101fe578063a9059cbb14610211578063dd62ed3e14610224578063ebf0c7171461025d57600080fd5b80636df91d03146101a557806370a08231146101b85780637bf32270146101e157806395d89b41146101f657600080fd5b806323b872dd116100d357806323b872dd1461014d578063313ce56714610160578063395093511461016f57806353dc840b1461018257600080fd5b806306fdde03146100fa578063095ea7b31461011857806318160ddd1461013b575b600080fd5b610102610284565b60405161010f9190610bc5565b60405180910390f35b61012b610126366004610c2f565b610316565b604051901515815260200161010f565b6002545b60405190815260200161010f565b61012b61015b366004610c59565b610330565b6040516012815260200161010f565b61012b61017d366004610c2f565b610354565b61012b610190366004610c95565b60056020526000908152604090205460ff1681565b61012b6101b3366004610cfc565b610393565b61013f6101c6366004610c95565b6001600160a01b031660009081526020819052604090205490565b6101f46101ef366004610d3e565b61042e565b005b6101026105a9565b61012b61020c366004610c2f565b6105b8565b61012b61021f366004610c2f565b610662565b61013f610232366004610d91565b6001600160a01b03918216600090815260016020908152604080832093909416825291909152205490565b61013f7f000000000000000000000000000000000000000000000000000000000000000081565b60606003805461029390610dc4565b80601f01602080910402602001604051908101604052809291908181526020018280546102bf90610dc4565b801561030c5780601f106102e15761010080835404028352916020019161030c565b820191906000526020600020905b8154815290600101906020018083116102ef57829003601f168201915b5050505050905090565b600033610324818585610670565b60019150505b92915050565b60003361033e8582856107c8565b61034985858561085a565b506001949350505050565b3360008181526001602090815260408083206001600160a01b0387168452909152812054909190610324908290869061038e908790610e14565b610670565b6000610427838380806020026020016040519081016040528093929190818152602001838360200280828437600092019190915250506040516bffffffffffffffffffffffff193360601b1660208201527f00000000000000000000000000000000000000000000000000000000000000009250603401905060405160208183030381529060405280519060200120610a47565b9392505050565b60408051606085901b6bffffffffffffffffffffffff191660208083019190915282516014818403018152603490920190925280519101206104a390838380806020026020016040519081016040528093929190818152602001838360200280828437600092019190915250610a5d92505050565b6104f45760405162461bcd60e51b815260206004820152601460248201527f496e76616c6964206d65726b6c652070726f6f6600000000000000000000000060448201526064015b60405180910390fd5b6001600160a01b03831660009081526005602052604090205460ff161561055d5760405162461bcd60e51b815260206004820152600f60248201527f416c7265616479206d696e74656421000000000000000000000000000000000060448201526064016104eb565b600061056860065490565b9050610578600680546001019055565b6105828482610a8a565b5050506001600160a01b03166000908152600560205260409020805460ff19166001179055565b60606004805461029390610dc4565b3360008181526001602090815260408083206001600160a01b0387168452909152812054909190838110156106555760405162461bcd60e51b815260206004820152602560248201527f45524332303a2064656372656173656420616c6c6f77616e63652062656c6f7760448201527f207a65726f00000000000000000000000000000000000000000000000000000060648201526084016104eb565b6103498286868403610670565b60003361032481858561085a565b6001600160a01b0383166106eb5760405162461bcd60e51b8152602060048201526024808201527f45524332303a20617070726f76652066726f6d20746865207a65726f2061646460448201527f726573730000000000000000000000000000000000000000000000000000000060648201526084016104eb565b6001600160a01b0382166107675760405162461bcd60e51b815260206004820152602260248201527f45524332303a20617070726f766520746f20746865207a65726f20616464726560448201527f737300000000000000000000000000000000000000000000000000000000000060648201526084016104eb565b6001600160a01b0383811660008181526001602090815260408083209487168084529482529182902085905590518481527f8c5be1e5ebec7d5bd14f71427d1e84f3dd0314c0f7b2291e5b200ac8c7c3b925910160405180910390a3505050565b6001600160a01b03838116600090815260016020908152604080832093861683529290522054600019811461085457818110156108475760405162461bcd60e51b815260206004820152601d60248201527f45524332303a20696e73756666696369656e7420616c6c6f77616e636500000060448201526064016104eb565b6108548484848403610670565b50505050565b6001600160a01b0383166108d65760405162461bcd60e51b815260206004820152602560248201527f45524332303a207472616e736665722066726f6d20746865207a65726f20616460448201527f647265737300000000000000000000000000000000000000000000000000000060648201526084016104eb565b6001600160a01b0382166109525760405162461bcd60e51b815260206004820152602360248201527f45524332303a207472616e7366657220746f20746865207a65726f206164647260448201527f657373000000000000000000000000000000000000000000000000000000000060648201526084016104eb565b6001600160a01b038316600090815260208190526040902054818110156109e15760405162461bcd60e51b815260206004820152602660248201527f45524332303a207472616e7366657220616d6f756e742065786365656473206260448201527f616c616e6365000000000000000000000000000000000000000000000000000060648201526084016104eb565b6001600160a01b03848116600081815260208181526040808320878703905593871680835291849020805487019055925185815290927fddf252ad1be2c89b69c2b068fc378daa952ba7f163c4a11628f55a4df523b3ef910160405180910390a3610854565b600082610a548584610b49565b14949350505050565b6000610427827f000000000000000000000000000000000000000000000000000000000000000085610a47565b6001600160a01b038216610ae05760405162461bcd60e51b815260206004820152601f60248201527f45524332303a206d696e7420746f20746865207a65726f20616464726573730060448201526064016104eb565b8060026000828254610af29190610e14565b90915550506001600160a01b038216600081815260208181526040808320805486019055518481527fddf252ad1be2c89b69c2b068fc378daa952ba7f163c4a11628f55a4df523b3ef910160405180910390a35050565b600081815b8451811015610b8e57610b7a82868381518110610b6d57610b6d610e27565b6020026020010151610b96565b915080610b8681610e3d565b915050610b4e565b509392505050565b6000818310610bb2576000828152602084905260409020610427565b6000838152602083905260409020610427565b600060208083528351808285015260005b81811015610bf257858101830151858201604001528201610bd6565b506000604082860101526040601f19601f8301168501019250505092915050565b80356001600160a01b0381168114610c2a57600080fd5b919050565b60008060408385031215610c4257600080fd5b610c4b83610c13565b946020939093013593505050565b600080600060608486031215610c6e57600080fd5b610c7784610c13565b9250610c8560208501610c13565b9150604084013590509250925092565b600060208284031215610ca757600080fd5b61042782610c13565b60008083601f840112610cc257600080fd5b50813567ffffffffffffffff811115610cda57600080fd5b6020830191508360208260051b8501011115610cf557600080fd5b9250929050565b60008060208385031215610d0f57600080fd5b823567ffffffffffffffff811115610d2657600080fd5b610d3285828601610cb0565b90969095509350505050565b600080600060408486031215610d5357600080fd5b610d5c84610c13565b9250602084013567ffffffffffffffff811115610d7857600080fd5b610d8486828701610cb0565b9497909650939450505050565b60008060408385031215610da457600080fd5b610dad83610c13565b9150610dbb60208401610c13565b90509250929050565b600181811c90821680610dd857607f821691505b602082108103610df857634e487b7160e01b600052602260045260246000fd5b50919050565b634e487b7160e01b600052601160045260246000fd5b8082018082111561032a5761032a610dfe565b634e487b7160e01b600052603260045260246000fd5b600060018201610e4f57610e4f610dfe565b506001019056fea26469706673582212208c0eeae916d9b198c37fc8fdaa25773b29c9c1ffd047e0f4c248af0053ddea0764736f6c63430008120033",
  "linkReferences": {},
  "deployedLinkReferences": {}
}